:1000000000000120B1010000DD010000DD01000061
:10001000DD010000DD010000DD010000DD01000068
:10002000DD010000DD010000DD010000DD01000058
:10003000DD010000DC010000DD010000DD01000049
:10004000DD010000DD010000DD010000DD01000038
:10005000DD010000DD010000DD010000DD01000028
:10006000DD010000F9140000DD010000DD010000E9
:10007000DD010000DD010000DD010000D114000001
:10008000DD010000DD010000DD010000DD010000F8
:10009000DD010000DD010000DD010000DD010000E8
:1000A000DD010000DD010000DD010000DD010000D8
:1000B000DD010000DD010000DD010000DD010000C8
:1000C000DD010000DD010000DD010000DD010000B8
:1000D000DD010000DD010000DD010000DD010000A8
:1000E000DD010000DD010000DD010000DD01000098
:1000F000DD010000DD010000DD01000010B5054C50
:10010000237833B9044B13B10448AFF300800123C3
:10011000237010BD7C000020000000006418000067
:1001200008B5034B1BB103490348AFF3008008BD7A
:10013000000000008000002064180000154B002B18
:1001400008BF134B9D46A3F5803A00218B460F460E
:100150001348144A121A01F04BFB0F4B002B00D02E
:1001600098470E4B002B00D0984700200021040038
:100170000D000D48002802D00C48AFF3008001F0BC
:1001800013FB2000290001F0BFFA01F0F9FA00BFCB
:100190000000080000000120000000000000000036
:1001A0007C000020F00000200000000000000000A3
:1001B000064880470649074A074B9A42BEBF51F896
:1001C000040B42F8040BF8E7FFF7B8FF71020000D8
:1001D00070180000000000207C000020FEE700BF37
:1001E0000048704700F04902114BD3F8943003F0F7
:1001F0000703023B032B18D8DFE803F00D021410AD
:100200004FF400400A4BD3F80031C3F30423013309
:10021000B0FBF3F07047074B1868F3E7064B18681C
:100220004008EFE7054B1868ECE7034B1868E9E76F
:1002300000400E4004000020080000200C000020B8
:1002400008B5FFF7D1FF054B054AD3F80831C3F3D2
:1002500008230133B0FBF3F0106008BD00400E40EE
:1002600000000020014B1868704700BF0400002008
:10027000044B054A9A60D3F8882042F47002C3F810
:100280008820704700ED00E0000000004FF40040BF
:10029000704700BF4FF47A70704700BF014B186879
:1002A000704700BF0C00002070B4294D294C2A4B28
:1002B000466B002A16BF2B4600221022A04201D016
:1002C00070BC7047022903EA06031FD009D906292A
:1002D00032D081291AD003292AD01E4A536370BC18
:1002E000704739B30129F8D11C48016804680068D7
:1002F000090C000C00F0F00001F4FE410143C4F3CE
:100300000340014301FA02F21343E6E71449086887
:100310000C68096800F4FE4004F00F04204301F06B
:10032000F001014301FA02F213430A4A5363D6E78C
:100330000B48DAE70949EAE70A480168006801F072
:100340000F0100F0F000014301FA02F21343C4E789
:10035000FFFF0080002000400080FFFF1082E00FC0
:100360001482E00F1882E00F70B5CB780E46054678
:10037000002B34D002681B02120603F4FE4427D57A
:100380000A23AB60B278307873783179120402F4C2
:10039000FE0243EA00631343234309B143F0100311
:1003A00005F1806105F1C06270792B60C0240C609A
:1003B00010602B681B0600D470BD124800F022FBB1
:1003C000114B9D42F8D11148BDE8704000F01ABBB6
:1003D0000F4800F017FB0E4800F014FBD0E70C4864
:1003E0000C4C00F00FFB0C4B0444A3FB0434A40D95
:1003F000C6D0631E7F2B28BF7F231B0203F4FE445D
:10040000BEE700BFB80032000020004000B2040088
:1004100040410500FF23F40083DE1B4370B5022337
:100420000C460022897883600546FFF73DFF21795D
:1004300060786279E6780B0243EA006343EA02439C
:10044000E27943EAC6030AB143F00053227A0AB1C3
:1004500043F00403A2790AB143F00203627A0AB1BD
:1004600043F00103F329A27828D01006114619D4CD
:1004700043EA41132B616A6922F4F21222F0070267
:100480002178E37A42EA41420BB142F480426B01A7
:1004900003F18443A17A6A619960EB6FD5F88030EB
:1004A000EB6870BD43F0E0032B616B6923F4F2133A
:1004B00022F0800223F007031A43E1E7002AD4D197
:1004C000032803D823F0706343F080630021CFE753
:1004D000B0F5FA4F10B50C4C38BF4FF4FA408442D7
:1004E00028BF044651B1631E1944B1FBF4F020B19A
:1004F00001387F2828BF7F20C0B210BD034800F01C
:1005000081FA0146EFE700BF0024F40040410500F6
:1005100008B550B1084B00F5742000F23F20A3FB52
:100520000030800C0138C0B208BD044800F06AFAFF
:100530000028EFD108BD00BF83DE1B43404105000A
:1005400010B4134B134A5B680024C9B28C42234693
:1005500008D00133052B02F1080215D012F8084C1F
:100560008C42F6D152F80C4C8442F2D30A4A02EB88
:10057000C3035B791A0606495DF8044B4B6823F008
:10058000407313434B6070474FF04072F3E700BF76
:1005900000000E40401800003418000038B5074C29
:1005A00041F67133256C2364FFF71AFE0021FFF733
:1005B000C7FF0DB10023236438BD00BF00000E400B
:1005C0000C4A0D4BD2F89010516A21F0300141F0E5
:1005D000100110B45162146BC0F3C31103312340F6
:1005E0000F2928BF0F21034343EA017313635DF80A
:1005F000044B704700400E4000F8FF0F38B5054C23
:1006000041F67133256C2364FFF79AFF0DB1002387
:10061000236438BD00000E40014B1868704700BFCE
:1006200010000020334B98425FD010D9324B9842D3
:100630003ED02FD8314B984236D003F5371303F50F
:10064000D863984243D12E4BD3F800110CE02D4BC8
:10065000984238D034D92C4B984234D02B4B984206
:1006600035D1274BD3F8EC10294B2A4A1860136870
:10067000002BFCD1234B984230D0234B984228D0FA
:10068000254B984203D121F0C06141F08061234B9A
:1006900099617047224B98420ED0224B984216D156
:1006A000174BD3F81011DFE7154BD3F8FC10DBE73D
:1006B000134BD3F80811D7E7114BD3F80C11D3E73C
:1006C000154B984203D10E4BD3F8E010CCE7002134
:1006D000CAE7124B21F0C0619961704721F0C061F7
:1006E0000E4B41F0007199617047054BD3F8F8103B
:1006F000BAE700BF405DC60080BA8C010024F40058
:10070000B081E00F80841E0000093D00C0CF6A0068
:10071000100000206428C84340420F0000400E40F3
:100720000048E80180D54302C0F30323013B30B405
:10073000092B0CD8DFE803F00D110B0B152D190B4D
:100740002705164CC0F3043020448000016030BC03
:100750007047C0F30430124CF6E7C0F30430114C7C
:10076000F2E7C0F30430104CEEE7104CC0F3043055
:1007700010250F4BD3F84421D207E5D4D3F84021FC
:100780002A42FBD1E0E7C0F304300A4C4FF4803535
:10079000EFE7C0F30430084C0125EAE7800AF210C5
:1007A0000000F2100006F2108005F2104007F2106F
:1007B00000400E408007F2100007F210C0F3031350
:1007C000013B092B53D8DFE803F00E141A245252D0
:1007D0002A303F05304B984249D1304BD3F8300195
:1007E00000F0030070472D4BD3F80001C0F3042044
:1007F00070472A4BD3F81401C0F304207047274BED
:10080000D3F80001C0F30060431C01209840013878
:100810007047224BD3F80C01C0F3082070471F4BE0
:10082000D3F80801C0F3082070471D4B984229D027
:100830001C4B98421BD1194BD3F820310120C3F334
:100840000113984001387047174B984211D003F5B7
:10085000B01303F58053984209D1104BD3F8280107
:10086000C0F30120031D012098400138704700208B
:1008700070470A4BD3F828310120C3F30113984085
:1008800001387047054BD3F82031012003F00F03E6
:1008900098400138704700BFA009140000400E4086
:1008A0008006160080162E0090171A0000F00F0028
:1008B0000138072847D8DFE800F0121D3346283EEC
:1008C0004604264BD3F85C3103F03003202B40D094
:1008D000302B40D0102B0CBF0720012070471F4B3E
:1008E000D3F8943003F00703023B052B2FD81C4AA2
:1008F000D05C7047194BD3F8803003F00703013BFD
:10090000042B22D8174AD05C7047144BD3F8883098
:1009100003F00703013B042B17D8134AD05C704740
:100920000E4BD3F8843003F00703013B042B0CD8A3
:100930000E4AD05C7047094B1B6F13F0010F14BFB8
:1009400009200720704700207047012070470520CC
:100950007047042070470820704700BF00400E40D9
:100960001C18000024180000241800002C18000097
:1009700008B50146FFF79AFF1E4B99421FD01E4B48
:10098000994216D01D4B99420DD00138042808D841
:10099000DFE800F003281B2C0300BDE80840FFF748
:1009A00075BC002008BD164BD3F8800000F007008E
:1009B000EBE7134BD3F8880000F00700E5E7104B96
:1009C000D3F8840000F00700DFE7FFF70DFC0C4BC5
:1009D000D3F80031C3F300635A1C01239340B0FBEA
:1009E000F3F008BDBDE80840FFF758BCBDE808407B
:1009F000FFF750BC030020000500240002001E0089
:100A000000400E4000F47813B3F5B01F10B500F0AD
:100A1000AB8019D9B3F5101F00F0B8804DD9B3F5EC
:100A2000401F29D06AD9B3F5481F3ED0B3F5781FCF
:100A30004CD10446FFF7D8FB01462046FFF7BEFE27
:100A40000130B1FBF0F010BDB3F5202F29D04CD907
:100A5000B3F5602F1ED05ED9B3F5801F2AD0B3F551
:100A6000A01F33D15548FFF783FF554BD3F83031E2
:100A700003F00303D84010BD5248FFF779FF504BF5
:100A8000D3F82831C3F301231A1D01239340B0FB8F
:100A9000F3F010BD4C48FFF709FF07280AD00928DA
:100AA00014D1BDE81040FFF79FBB4848FFF7FEFE9A
:100AB000072870D1464B186810BDB3F5F01F60D001
:100AC000B3F5001F35D0B3F5D01F01D0002010BD05
:100AD0003C48FFF74DFF3A4BD3F828210123C2F3DE
:100AE00001129340B0FBF3F010BDB3F5003F30D0DE
:100AF000B3F5802F22D0002BE8D1D2E7B3F5381F11
:100B0000E4D13448FFF734FF2D4BD3F82031C3F341
:100B10000113D84010BDB3F5402FD7D1FFF764FBC8
:100B2000274BD3F81431C3F304230133B0FBF3F0A4
:100B300010BD2448BDE81040FFF71ABFFFF754FB73
:100B40001F4BD3F80C31C3F308230133B0FBF3F090
:100B500010BDFFF749FB1A4BD3F80831C3F3082344
:100B60000133B0FBF3F010BD1A48FFF701FF144B3F
:100B7000D3F82021012302F00F029340B0FBF3F0E1
:100B800010BD1448BDE81040FFF7F2BE0B48BDE8A9
:100B90001040FFF7EDBE082805D0042896D1BDE827
:100BA0001040FFF75FBBFFF71FFB054BD3F8003189
:100BB000C3F3042303FB000010BD00BF05002400A5
:100BC00000400E400300200006000E00B800320076
:100BD0001000002002001E000F4B5B6A13F0300F64
:100BE00006D0202914D0302902D009B10B4A01E0E7
:100BF0004FF440020849D1F8903032EA0303FAD1A9
:100C0000530246BFD1F8A000C0F3802001207047F6
:100C10004FF40002EEE700BF00400E40FFF3E17F1B
:100C20002DE9F041074682B00E469046072819D8B4
:100C3000DFE800F0514C58474218181B504B2B442A
:100C40009B0000264F4A14661A68002AFCD0B8F1AF
:100C5000000F07D04A4D0544AD002B68002BFCD097
:100C6000022F5AD002B0BDE8F08101A800F016FCB6
:100C70009DF80530012B4BD94FF400434FF48044CD
:100C80000E250F20002ED9D13E4901220B6602FA13
:100C900005F50B46D3F890202A42FBD1B8F1000F9E
:100CA000E0D00123374A03FA00F0D2F89030034233
:100CB000FBD102B0BDE8F0812023102404250520DB
:100CC000E0E70124204602230025DBE780234024BF
:100CD00006250720D6E74FF400734FF480740825EB
:100CE0000920CFE7002946D026494B6A13F0300F80
:100CF00038D1254BDB6B4B6ADB072FD54A6A234B78
:100D000022F0300242F010024A620424032099E7E4
:100D10009DF80430022BAFD8FEE7002EA2D0194A6E
:100D2000516A11F0010122D04FF480632021C2F8F2
:100D3000A83038465166FFF74FFF124ED6F89C7028
:100D4000012200210220FFF76BFFC7F30A00FFF723
:100D500037FC34662B68002BFCD083E70B4B042454
:100D600003206FE7094B0424032000266AE7384676
:100D7000FFF732FFE1E708230225032084E700BFE5
:100D80008004F21000400E4000300E400812C843AC
:100D90001128F8B50C460DD000F00F0001380728D7
:100DA00007D8DFE800F00C6A6C063F6106290423CF
:100DB0002B60F8BD042900F09B80052961D0002537
:100DC000023C0A2CF5D801A353F824F007100000C8
:100DD000CF0F0000D50F0000EF0F0000B30D000093
:100DE000B30D0000B30D0000B30D0000B30D000003
:100DF000450F00000D1000004C1E072CD9D801A390
:100E000053F824F02F0F0000B30D0000B30D0000C5
:100E1000210F0000B30D0000B30D0000130F000000
:100E2000FF0E0000834D013C0C2CC2D801A353F8E7
:100E300024F000BFED0E0000DF0E0000D10E000018
:100E4000B30D0000B30D0000A50E0000B30D0000AF
:100E5000B30D0000B30D0000AF0D0000B30D000096
:100E6000B30D0000970E0000072900F0D480092977
:100E70009FD1714B01221A67F8BD704DD3E7704DB9
:100E8000D1E7704A704B15689D4298D900212846D9
:100E900000F06EFA94E7012211460720FFF7C0FE2A
:100EA000052385E7FFF7A0F9684B984241D8002059
:100EB0000146674B604A1960D2F80031654923F05A
:100EC000807303430120C2F80031032308606FE7F9
:100ED000012211461046FFF7A3FE012368E7012215
:100EE00011460020FFF79CFE022361E700235FE725
:100EF000FFF7B8F9054600283FF461AFC6E7302197
:100F00004D4AD2F85C3123F030030B43C2F85C3118
:100F1000F8BD012211460420FFF782FE1021EFE701
:100F2000012211460220FFF77BFE2021E8E7002185
:100F3000E6E7494B012198428CBF4FF000704FF01B
:100F40008070B6E70320052401221146FFF768FEF2
:100F5000FFF724FB1DB1414B1B685A0664D5364B85
:100F60005C67FFF76DF90646FFF73EF9374B98428D
:100F70004ED9394B012498428CBF4FF000734FF08B
:100F8000807333492C4A0C60D2F80001334920F0B9
:100F900080701843C2F800010B685B063FD5304BE8
:100FA000304C5968276C41F671333046C1F301412A
:100FB0002364FFF7C5FA0FB100232364002D7FF4EB
:100FC000F8AE28460121BDE8F84000F0D1B9012073
:100FD0000324B9E71E4B184A01211960D2F80031E9
:100FE000022043F08073C2F800310446ACE7184B8E
:100FF000114A01241C60D2F8003143F08073C2F81A
:1010000000310320A0E7002004249DE707249FE788
:1010100000231C46B5E7084B00221A67F8BD124AA8
:101020001368002BFCD1BAE70F4A1368002BFCD1E0
:1010300095E700BF88400E4000400E4080400E40C3
:1010400084400E4008000020002D31010048E801D6
:101050004000C8430816C8430090D0033C300E40FF
:1010600000300E4000000E40C800C643044B1B6910
:10107000C3F30443082B02D1024B034A1A607047A2
:1010800000400E4008000020C0EA21010E4B1A6803
:1010900052060FD41B685B0611D50C4B19685A68B1
:1010A000C1F30121C2F3014291421A6803D822F030
:1010B00010021A60704742F010021A607047044A2A
:1010C0001368002BFCD1E8E73C300E4000300E40A6
:1010D000C800C6430F4A08B50F4BD2F890201A60DB
:1010E0001120FFF7E3FB0D4B0D4A1B6810705B06E8
:1010F0000AD50C4B0C485B6806490C4AC3F3014304
:1011000003700B69136008BD094A1368002BFCD1FA
:10111000EFE700BF00400E40980000203C300E403A
:101120009C00002000300E40A5000020A000002000
:10113000C800C6432E4B1B685B0670B507D42D4B09
:101140002D491A781023C2F1020293400B612B4BF8
:101150002B4DD3F88041264945F60E02C3F8802175
:10116000286840F2551202401A660B685E0604F0C9
:10117000010426D5204B1B68D80617D51F4AD2F884
:101180004031D901FBD41F4E1F4B31781B681361CE
:1011900005291BD01120FFF7FBFD2B68DB070CD5C1
:1011A0001CB1164B0022C3F8802170BD154E31785A
:1011B0000529EFD12B68DB07F2D4104B02221A6607
:1011C000EEE7124A1368002BFCD1D3E7084B104A14
:1011D0001B6810685A0606D5074B5968C1F30141D0
:1011E000FFF70CFAE3E7094A1368002BFCD1F3E799
:1011F0003C300E40A500002000300E4000400E4064
:10120000980000209C000020A0000020C800C643D9
:1012100008000020704700BF704700BF10B50446AB
:10122000F0B9FFF733FF104A136943F00403136169
:10123000FFF7F0FF30BFFFF7EFFF6CB90B4B1B68F8
:10124000DB0603D4BDE81040FEF7FABFFFF70EFF40
:10125000BDE81040FEF7F4BFBDE81040FFF76ABFDD
:10126000FFF738FFDDE700BF00ED00E000300E4083
:10127000244B1A68520622D41B682DE9F0415C0603
:101280001ED5214E7368C3F30143984215D01F4BFE
:101290000446D3F800310D46FEF7A6FFC4F102075D
:1012A0001023022C804603FA07F71AD037611DB1CC
:1012B000144B1B685A061ED56CB1BDE8F08170470F
:1012C000134A1368002BFCD10F4E7368C3F301431C
:1012D0009842DCD1F1E721464046BDE8F041FFF7F6
:1012E0008DB92146FFF78AF93761002DE5D0054B0E
:1012F0001B685B06E1D4064A1368002BFCD1002C66
:10130000DBD1E8E73C300E4000300E4000400E409C
:10131000C800C64340B1134B1B7813B1124B98421F
:101320001BD90020FFF7A4BF10B5104B82B0D3F833
:1013300000410191FEF758FF0A4B01991B78C4F355
:10134000042404FB000013B1074B984208D9002085
:1013500002B0BDE81040FFF78BBF0220FFF788BF47
:101360000220F5E7A4000020002D310100400E40CE
:10137000034B1B685B0601D4FFF7CCBF704700BF6F
:101380003C300E4038B5044601214FF4AA40FFF727
:10139000CBF9B4F8013020780D4A0E495BBA9BB204
:1013A00043EA0063002013604FF0004510624FF0E5
:1013B000FF33D06250634FF40070D5669366C1F876
:1013C0008001E3785B01DBB281F80933086038BD46
:1013D00000200E4000E100E029B1012902D11430C3
:1013E00002607047704710300260704730B40C786C
:1013F00014B98368DB0729D44A788D78CB68002A32
:1014000014BF4FF48052002235BB53BBCB780BB1D5
:1014100042F480720B790BB142F040024B790BB170
:1014200042F08002CB798D79097A1B0143EA85036A
:101430000B43134303603CB18368DA0704D4436B66
:101440009B07FCD40123436030BC7047436B9D076E
:10145000FCD402234360CFE742F40072002BD5D0C6
:1014600001E042F400720361D0E700BF29B1012915
:1014700002D11C300260704770471830026070471C
:101480000A4347F6077313401430034A43F080437E
:1014900042F82030704700BF00600E400B4A53698D
:1014A00011699B0003F03C03C1F381110B4383706E
:1014B000136903F03F0343709369D26903F0F003AB
:1014C000C2F3031213430370704700BFD0FF0FE055
:1014D000064B074AD3F884101160064A996C1160D4
:1014E0001A6C42F480321A64704700BF002000403A
:1014F000DC000020C8000020014B01229A667047E2
:1015000000200E4070B5012284B011461046FFF74E
:1015100087FB012119481A4EFFF706F903211948E4
:10152000FFF736FC01211848FFF7FEF800240223DC
:10153000012569463046CDE90044CDE902448DF8E5
:1015400006308DF800508DF80250FFF74FFF2A4605
:1015500021463046FFF78AFF304621460B4AFFF707
:101560003BFF29464FF48A40FFF7DEF8224620462B
:101570004FF46061FFF784FF04B070BD30253E007A
:101580000060044002001E008006160030E60200E3
:1015900070B5012182B04FF4AA40FFF7C5F8144B93
:1015A000144E1B6802A84FF0000440F8043DFFF7FA
:1015B000E9FE114B1149124A5A604FF400220A60A9
:1015C000072000224A600D1D60F30E1402214FF027
:1015D000030061F38300DA60C5E90122032191224F
:1015E0001C809E6019739A70D87002B070BD00BFE5
:1015F0005C180000A8000020CC000020E0000020C3
:101600004820004070B586B000251F22FF2301212D
:101610003448ADF8062004958DF804508DF811304B
:101620008DF805508DF808508DF8095003950595F3
:10163000FFF77AF801212C482C4CFFF775F82C4B5A
:101640002C481022C3F85C21FEF7ECFFFEF7E4FF04
:10165000FEF75EFF8DF80600FEF7DEFF0146264826
:10166000FEF736FF8023012649228DF807008DF80A
:1016700009302046032301A98DF810208DF80D3084
:101680008DF812508DF80F508DF80C508DF81660B3
:101690008DF80E608DF81360FEF766FE03A92046F4
:1016A000FEF7BCFE236915481549164A43F000436E
:1016B000236123690360E562E36A0B60636923F4D5
:1016C000405343F480536361C4F88C60636C4FF4FF
:1016D000004143F480336364C2F88011116006B0A6
:1016E00070BD00BF4041050000B204000020004072
:1016F00000400E4000093D000024F400DC00002002
:10170000C800002000E100E0154B00B501225A643A
:101710001A6883B042F480721A6001A8FFF7BEFE17
:101720009DF80530012B16D90E4A0F4C0F49104B6E
:10173000104D11484FF418761660104A2560086065
:101740001A60FFF75FFFFFF723FFFFF7DBFE0020C4
:10175000FFF764FDFBE79DF80430022BE4D8F0E7C7
:1017600000000E408C420E4090420E40F0420E406F
:10177000F8420E409A6F05001801000400843208F8
:1017800008B5074B044613B10021AFF30080054BA9
:101790001868836A03B19847204600F031F800BF0B
:1017A000000000006018000070B50D4E0D4CA41B29
:1017B000A4100025A54209D10B4E0C4C00F022F8D4
:1017C000A41BA4100025A54205D170BD56F82530F4
:1017D00098470135EEE756F8253098470135F2E78E
:1017E00074000020740000207400002078000020A5
:1017F00002440346934200D1704703F8011BF9E706
:10180000FEE700BFF8B500BFF8BC08BC9E467047B5
:10181000F8B500BFF8BC08BC9E4670470403020B35
:10182000050C00000302010A0D0000000302060A75
:101830000D00000040787D0100000000005A6202A7
:1018400000010000C0CF6A0002000000809FD500A8
:1018500002010000002D3101020200000700000318
:0818600014000020000000004C
:08186800D4E8FF7F010000003D
:10187000C0EA210100F04902C0EA21010080000015
:10188000C0EA21010000000000000000000000008C
:101890000000000000000000000000000000000048
:1018A0000000000000000000000000000000000038
:1018B0000000000000000000000000000000000028
:1018C0000000000000000000000000000000000018
:1018D0000000000000000000000000000000000008
:0C18E0000000000021010000FD000000DD
:04000003000001B147
:00000001FF
